:020000040800F2
:10000000A00600204D2E0008553100085731000889
:100010005B3100085F310008633100080000000018
:100020000000000000000000000000006731000830
:1000300069310008000000006B3100086D310008D4
:10004000672E0008672E0008672E0008672E00083C
:10005000672E0008672E0008672E0008A9360008E2
:10006000CD3600080B370008672E0008672E000801
:10007000672E0008672E0008672E0008672E00080C
:10008000672E0008672E0008672E0008672E0008FC
:100090001F3B0008672E0008672E0008672E000827
:1000A000672E0008672E0008672E0008672E0008DC
:1000B000672E0008A1350008672E0008672E00088B
:1000C000672E0008672E0008672E0008672E0008BC
:1000D000672E0008672E0008672E0008672E0008AC
:1000E000672E0008672E0008672E000800F002F84F
:1000F00000F04AF80AA090E8000C82448344AAF178
:100100000107DA4501D100F03FF8AFF2090EBAE875
:100110000F0013F0010F18BFFB1A43F0010318473B
:10012000BC5C0000DC5C0000103A24BF78C878C1D9
:10013000FAD8520724BF30C830C144BF04680C60ED
:10014000704700000023002400250026103A28BF35
:1001500078C1FBD8520728BF30C148BF0B60704739
:10016000662905F0AF80642903F06E860020704791
:100170001FB504F0E7F904000020002104F03AFF65
:10018000E0601FBD10B510BD04F0DCFA1146FFF7AA
:10019000EFFF02F091FF04F0FAFA03B4FFF7F2FF69
:1001A00003BC04F03DFB00000CB500200190009062
:1001B0006C48006840F480306A49086000BF6948B4
:1001C000006800F4003000900198401C01900098F5
:1001D00018B90198B0F5A06FF1D16248006800F439
:1001E000003010B10120009001E000200090009844
:1001F000012843D15C48006840F010005A4908606B
:100200000846006820F0030008600846006840F0D7
:1002100002000860534840685249486008464068F8
:1002200048600846406840F480604860084640687E
:1002300020F47C1048600846406840F4E8104860AC
:100240000846006840F08070086000BF45480068BC
:1002500000F000700028F9D04248406820F0030008
:10026000404948600846406840F00200486000BFCE
:100270003C48406800F00C000828F9D10CBD10B5CE
:10028000FFF792FF10BD10B53648006840F001003E
:10029000344908600846406834490840314948609C
:1002A00008460068324908402E4908600846006840
:1002B00020F4802008600846406820F4FE00486072
:1002C0004FF41F008860FFF7DAFF4FF00060294904
:1002D000086010BD10B5002100200022214B5B6892
:1002E00003F00C0121B1042906D0082928D107E028
:1002F000214B224C236027E01F4B204C236023E03E
:10030000184B5B6803F47010164B5B6803F4803283
:10031000022303EB904022B9194B4343174C23604F
:100320000DE0104B5B6803F4003323B1144B4343DF
:10033000124C236003E0104B4343104C236003E056
:100340000D4B0E4C236000BF00BF064B5B68C3F330
:1003500003130C4CE15C094B1B68CB40074C23603A
:1003600010BD000000100240002002400000FFF815
:10037000FFFFF6FE08ED00E000127A00000000200A
:1003800000093D000400002031490143314A116059
:10039000704770B5002100230F22C47804B32D4CA0
:1003A000246804F4E064C4F5E064210AC1F10403A4
:1003B000CA40447804FA03F18478144021430901C7
:1003C000254C0678A155047804F01F050124AC40A3
:1003D00005786D11AD0005F1E025C5F8004109E093
:1003E000047804F01F050124AC401C4D06787611FA
:1003F00045F8264070BD1A4A0A400243154B1B1FA0
:100400001A60704739B1134A121D12680243114B2A
:100410001B1D1A6006E00F4A121D126882430D4B25
:100420001B1D1A607047042808D14FF0E0210969AC
:1004300041F004014FF0E022116107E04FF0E021AC
:10044000096921F004014FF0E022116170470000BA
:100450000000FA050CED00E000E400E080E100E0BF
:1004600080FFFF1F10B50446CC48844208D101210B
:10047000042000F02DFB0021042000F029FB46E0C1
:10048000C748844208D10121082000F021FB002147
:10049000082000F01DFB3AE0C248844208D1012147
:1004A000102000F015FB0021102000F011FB2EE0C1
:1004B000BD48844208D10121202000F009FB002121
:1004C000202000F005FB22E0B848844208D1012139
:1004D000402000F0FDFA0021402000F0F9FA16E07B
:1004E000B348844208D10121802000F0F1FA0021B4
:1004F000802000F0EDFA0AE0AE48844207D10121E5
:10050000801500F0E5FA0021A01500F0E1FA10BD19
:1005100010B50121084600F0DBFA0021012000F0AF
:10052000D7FA10BD2DE9F041024600250026002033
:1005300000230024002791F803C00CF00F0591F868
:1005400003C00CF0100CBCF1000F03D091F802C0F6
:100550004CEA050591F800C0BCF1000F31D01468D9
:1005600000202BE04FF0010C0CFA00F3B1F800C0B2
:100570000CEA03069E4220D183004FF00F0C0CFAC8
:1005800003F7BC4305FA03FC4CEA040491F803C0EA
:10059000BCF1280F06D14FF0010C0CFA00FCC2F898
:1005A00014C00AE091F803C0BCF1480F05D14FF028
:1005B000010C0CFA00FCC2F810C0401C0828D1D372
:1005C0001460B1F800C0BCF1FF0F34DD54680020A6
:1005D0002EE000F1080C4FF0010808FA0CF3B1F816
:1005E00000C00CEA03069E4221D183004FF00F0C9D
:1005F0000CFA03F7BC4305FA03FC4CEA040491F837
:1006000003C0BCF1280F05D100F1080C08FA0CF862
:10061000C2F8148091F803C0BCF1480F07D100F173
:10062000080C4FF0010808FA0CF8C2F81080401CC2
:100630000828CED35460BDE8F0814FF6FF710180E9
:10064000022181700421C170704702460020936826
:100650000B400BB1012000E0002070470146886884
:1006600080B2704702460020D3680B400BB10120D6
:1006700000E0002070470146C86880B27047016101
:100680007047416170470AB1016100E04161704704
:10069000C16070474FF480320A4382618161826198
:1006A00082698269704702460020434B18684FF602
:1006B0008073184040EA021008433F4B18607047AF
:1006C0003E49C8617047F0B50A4600230024002166
:1006D000002500F00046B6F1004F02D1364EF16918
:1006E00001E0354E7168C0F3034583B200F4401653
:1006F000B6F5401F08D121F070612F4E766826F0C4
:1007000070662D4F7E6012E000F48016B6F5801FF3
:1007100006D1032606FA05F4A14341F0706106E014
:10072000460D360103FA06F6B14341F0706122B17D
:10073000460D360103FA06F6314300F00046B6F1E5
:10074000004F02D11C4EF16101E01B4E7160F0BD03
:1007500030B500228B071C0F0F2303FA04F2164B4F
:1007600008338C1053F824309343134C08348D1005
:1007700044F8253023468C1053F824308C07240F7E
:1007800000FA04F423430C4C08348D1044F825304F
:1007900030BD0A49DC3108607047000000080140A4
:1007A000000C0140001001400014014000180140FD
:1007B000001C0140002001400000014000002042D8
:1007C000DF48006840F00100DD49086008464068E5
:1007D000DC490840DA49486008460068DA490840C0
:1007E000D74908600846006820F480200860084661
:1007F000406820F4FE0048604FF41F008860704796
:10080000CF49096821F48031CD4A11601146096849
:1008100021F480211160B0F5803F03D0B0F5802F26
:100820000ED106E0C649096841F48031C44A11601E
:1008300007E0C349096841F4A021C14A116000E002
:1008400000BF00BF704710B5014600220023002002
:100850004A11012A02D1BA4C236806E0022A02D1C9
:10086000B74C236A01E0B64C636A01F01F02012411
:1008700094401C400CB1012000E0002010BD38B5B0
:10088000002000900024002500BF3120FFF7DBFF8F
:1008900005460098401C00900098B0F5A06F01D06C
:1008A000002DF2D03120FFF7CEFF08B1012400E087
:1008B0000024204638BD01460020A14A106820F0DF
:1008C000F80040EAC10010607047A0490860704716
:1008D000024600209A4B586820F47C1042EA01033B
:1008E0001843974B5860704798490866704701460F
:1008F0000020934A506820F003000843506070477E
:100900008F48406800F00C007047014600208C4A78
:10091000506820F0F0000843506070470146002006
:10092000874A506820F4E0600843506070470146F1
:100930000020834A506820F4605040EAC1005060B3
:10094000704729B17E4A527A02437D4B5A7204E0C5
:100950007B4A527A82437A4B5A7270477B49D8312C
:100960000860704701460020754A506820F44040F6
:100970000843506070470021714A20321170704A5C
:1009800082F82010012802D004280AD104E00121B5
:100990006B4A2032117005E00521694A203211703E
:1009A00000E000BF00BF70476949086070476449B4
:1009B000096A0143624A1162704765494439086017
:1009C000704730B500210022002400235C4D6D6883
:1009D00005F00C0121B1042905D0082923D105E037
:1009E0005C4D056022E05B4D05601FE0544D6D6875
:1009F00005F47012524D6D6805F48034022505EB44
:100A000092421CB9544D554305600BE04C4D6D6846
:100A100005F400351DB1504D5543056002E04D4DC4
:100A20005543056002E04B4D056000BF00BF444DDB
:100A30006D6805F0F0010909484D6B5C0568DD4003
:100A400045603F4D6D6805F4E061090A434D6B5CFC
:100A50004568DD4085603A4D6D6805F46051C90A0E
:100A60003E4D6B5C4568DD40C560354D6D6805F4F5
:100A70004041890B3A4D6B5CC568B5FBF3F50561E8
:100A800030BD29B12E4A526902432D4B5A6104E010
:100A90002B4A526982432A4B5A61704729B1284A2E
:100AA00092690243264B9A6104E0254A9269824387
:100AB000234B9A61704729B1214AD2690243204BE6
:100AC000DA6104E01E4AD26982431D4BDA61704745
:100AD00029B11B4AD2680243194BDA6004E0184A74
:100AE000D2688243164BDA60704729B1144A126902
:100AF0000243134B1A6104E0114A12698243104BFE
:100B00001A61704712494039086070470F49C8643C
:100B100070470B49C87170470948406A40F08070BF
:100B200007494862704701460020054A92680A401A
:100B30000AB1012000E00020704701498872704727
:100B4000001002400000FFF8FFFFF6FE00004242E6
:100B50008004424200127A0000093D001400002087
:100B60002400002010B50446F748844209D1012131
:100B70004805FFF7BAFF00214FF40010FFF7B5FF5B
:100B800008E001218805FFF7B0FF00214FF4800045
:100B9000FFF7ABFF10BD2DE9F04385B004460D46CD
:100BA0000026B1460427DFF8A483A6884FF6C0705C
:100BB00006406846FFF705FFDDF80880E448B8FB0B
:100BC000F0F01FFA80F946EA0906A68020884FF661
:100BD000FE71084020800026DE49286888420CD833
:100BE00028684000B8FBF0F087B2042F00DA042731
:100BF0003E4309F10100208427E0E8884BF6FF71AD
:100C0000884206D1286800EB4000B8FBF0F087B2BC
:100C100009E0286800EBC00101EB0010B8FBF0F020
:100C200087B247F48047C7F30B0008B947F00107C4
:100C300047F4004006434FF4967009FB00F04FF470
:100C40007A7190FBF1F0401C2084A683208840F04C
:100C50000100208026884FF6F5300640A888698973
:100C6000084306432680A88929890843208105B0C6
:100C7000BDE8F08341F288310160002181804BF6AC
:100C8000FF71C1800021018141814FF48041818148
:100C9000704721B1028842F00102028004E002881C
:100CA0004FF6FE731A400280704721B1828842F4E9
:100CB0000062828004E082884FF2FF731A408280D3
:100CC000704721B1828842F48052828004E0828899
:100CD0004EF6FF731A408280704721B1028842F4B9
:100CE0008072028004E002884FF6FF631A4002809F
:100CF000704721B1028842F40072028004E0028849
:100D00004FF6FF531A400280704721B1028842F427
:100D10008062028004E002884FF6FF331A400280AE
:100D200070470A46002181894FF60173194002F08D
:100D3000FE0319438181704721B1828942F001028B
:100D4000828104E082894FF6FE731A4082817047E7
:100D500021B1028842F04002028004E002884FF68E
:100D6000BF731A40028070471AB183880B43838097
:100D700002E083888B43838070470182704701467D
:100D8000088AC0B2704712B141F0010102E04FF68B
:100D9000FE7319400182704708B50246002000909A
:100DA00000920098084400900098008808BD21B186
:100DB000028842F40042028003E00288C2F30E027D
:100DC00002807047B1F5006F04D1028842F40062DE
:100DD000028004E002884FF2FF731A4002807047DD
:100DE000B1F5005F04D1028842F40052028004E0B1
:100DF00002884DF6FF731A400280704721B10288C5
:100E000042F48052028004E002884EF6FF731A40DA
:100E100002807047B1F5006F04D1028842F400628D
:100E2000028004E002884FF2FF731A40028070478C
:100E300021B1028842F02002028004E002884FF6CD
:100E4000DF731A40028070470146088B001270471A
:100E500021B1028842F01002028004E002884FF6BD
:100E6000EF731A400280704721B9028842F0800275
:100E7000028004E002884FF67F731A4002807047B8
:100E8000B1F5804F05D0828B4BF6FF731A408283F9
:100E900003E0828B42F480428283704770B5024641
:100EA0000024002500230020958A138B1B0445EAAB
:100EB000030626F07F4404EA01068E4201D1012098
:100EC00000E0002070BD10B5014600200023002284
:100ED0008B8A0A8B120443EA020424F07F4010BD7F
:100EE0000CB50246002000230193009300920B0FE3
:100EF000019321F07F41019B1BB1009B14330093B0
:100F000003E0090C009B18330093009B1B680B4007
:100F10000BB1012000E000200CBD002221F07F4237
:100F2000D3438382704730B5024600200023948863
:100F300001F0E06504EA154321F07F41948A0C40FA
:100F400054B14BB1012008E00054004000127A0077
:100F500040420F00A0860100002030BD002221F099
:100F60007F42D3438382704701460020FE4A1068C7
:100F700000F03800084310607047FB49096821F011
:100F80000801F94A11601146096801431160704770
:100F9000F549096821F01001F34A1160114609680A
:100FA000014311607047F148EF494860F0484860DC
:100FB0007047EE48EC494860ED4848607047EA48A1
:100FC000006940F08000E84908617047E648006920
:100FD00040F08000E449086170470420E249C96894
:100FE00001F0010109B101200EE0DF49C96801F0FB
:100FF000040109B1022007E0DB49C96801F01001D2
:1010000009B1032000E00420704700B50246042324
:10101000FFF7E3FF034603E0FFF7DFFF0346521E3F
:10102000012B01D1002AF7D102B90523184600BDD2
:1010300030B5044604254FF43020FFF7E6FF05469F
:10104000042D17D1C848006940F00200C649086164
:1010500008464461006940F0400008614FF43020C8
:10106000FFF7D3FF0546C048006941F6FD7108400F
:10107000BD490861284630BD10B504244FF4302026
:10108000FFF7C3FF0446042C16D1B748006940F0AF
:101090000400B54908610846006940F04000086155
:1010A0004FF43020FFF7B1FF0446AF48006941F626
:1010B000FB710840AC490861204610BD00B50246EE
:1010C0000423FFF78AFF034603E0FFF786FF03468A
:1010D000521E012B01D1002AF7D102B9052318466F
:1010E00000BD10B504244FF43020FFF7E7FF04469D
:1010F000042C16D19C48006940F004009A4908610C
:101100000846006940F0400008614FF43020FFF7C6
:10111000D5FF04469448006941F6FB7108409249A6
:101120000861204610BD00208F49C96901F0020105
:1011300009B1012000E00020704730B5A525042446
:10114000FFF7F1FF00B100254FF43020FFF75DFFFE
:101150000446042C3AD185488349886084488860D5
:101160000846006940F0200008610846006940F028
:10117000400008614FF43020FFF747FF0446042C7D
:101180001BD17948006941F6DF7108407649086152
:101190000846006940F01000086176480580E002CA
:1011A000FFF733FF0446052C10D06F48006941F665
:1011B000EF7108406C49086108E0052C06D06A48C8
:1011C000006941F6EF71084067490861204630BD6B
:1011D00078B506460C46042500200090E802FFF78B
:1011E00014FF0546042D24D15F48006940F001003A
:1011F0005D4908613480E802FFF707FF0546042DCA
:1012000010D1B01C0090200C00990880E802FFF774
:10121000FCFE05465448006941F6FE7108405249FB
:10122000086106E05048006941F6FE7108404E49E9
:101230000861284678BD70B504460D460426F002C4
:10124000FFF7E3FE0646042E11D14748006940F03F
:101250000100454908612580F002FFF7D6FE0646E9
:101260004148006941F6FE7108403F490861304637
:1012700070BD70B505460E460424E002FFF7C5FEBA
:101280000446042C17D139483749886038488860AB
:101290000846006940F0100008612E80E002FFF768
:1012A000B4FE0446052C06D02F48006941F6EF71C4
:1012B00008402D490861204670BD2DE9F0430446E1
:1012C0004FF6FF763746B046B1460425E443E6B212
:1012D000C4F30727C4F307484FEA1469E802FFF78D
:1012E00094FE0546042D49D120481F4988602048B6
:1012F00088600846006940F010000861FF2E06D0A3
:101300001C4808300680E802FFF77FFE0546042DE2
:1013100008D1FF2F06D017480A300780E802FFF7F0
:1013200074FE0546042D0AD1B8F1FF0F07D011480D
:101330000C30A0F80080E802FFF767FE0546042D98
:101340000AD1B9F1FF0F07D00A480E30A0F800907B
:10135000E802FFF75AFE0546052D0FD00248006946
:1013600041F6EF71084007E0002002402301674585
:10137000AB89EFCD00F8FF1F664908612846BDE83C
:10138000F08330B5054604244FF43020FFF73DFECE
:101390000446042C41D160485E4988605F488860FB
:1013A0000846006940F0200008610846006940F0E6
:1013B000400008614FF43020FFF727FE0446042C5C
:1013C00022D15448006941F6DF7108405149086153
:1013D0000846006940F0100008611DB10020504926
:1013E000088002E0A5204E4908804FF43020FFF726
:1013F0000CFE0446052C10D04648006941F6EF71FA
:1014000008404449086108E0052C06D041480069BD
:1014100041F6DF7108403F490861204630BDF0B514
:1014200005460E46174604243B483A4988603B4827
:101430008860E002FFF7E9FD0446042C19D1354825
:10144000006940F010003349086147F0F80030436C
:1014500028433349891C0880E002FFF7D6FD044683
:10146000052C06D02B48006941F6EF710840294948
:1014700008612046F0BD2748C069800870472548AC
:10148000006A704700202349096801F0200109B172
:10149000012000E00020704729B11E4A1269024372
:1014A0001C4B1A6104E01B4A12698243194B1A61F2
:1014B000704701460020012908D1164AD26902F07E
:1014C00001020AB1012008E0002006E0114AD268BA
:1014D0000A400AB1012000E0002070470D49C860B1
:1014E000704704200B49C96801F0010109B10120CE
:1014F0000EE00849C96801F0040109B1022007E0C3
:101500000449C96801F0100109B1032000E004207A
:10151000704700000020024023016745AB89EFCDF2
:1015200000F8FF1F002044490860091D0860091DDC
:101530000860091D086041483F4914310860704740
:1015400000213D498279002A3AD00A461268036890
:101550009A430B461A600A1D126803689A430B1DD2
:101560001A60027911440A6803681A430A60324A11
:101570000832126803689A432F4B08331A601A1D09
:10158000126803689A432C4B0C331A604279102A74
:101590000ED11A1F126803681A43274B08331A60CA
:1015A0001A1D126803681A43234B0C331A600DE0AE
:1015B0002149427911440A6803681A430A6005E028
:1015C000027911440A6803689A430A60704700214F
:1015D000016001710C214171002181717047164930
:1015E000103109680143144A1032116070470146F6
:1015F0000020114A143212680A400AB1012000E0AA
:10160000002070470C4914310860704701460020E3
:101610000022094B1B6803EA0102074B14331B68C5
:101620000B4013B10AB1012000E0002070470249CD
:10163000143108607047000000040140FFFF0F00F4
:1016400010B50446FE48844208D10121C014FFF7BA
:101650003FFA0021E014FFF73BFAC4E0B4F1804FF9
:1016600008D101210846FFF740FA00210120FFF7C9
:101670003CFAB8E0F348844208D101210220FFF788
:1016800034FA00210220FFF730FAACE0EE48844241
:1016900008D101210420FFF728FA00210420FFF7D8
:1016A00024FAA0E0E948844208D101210820FFF78C
:1016B0001CFA00210820FFF718FA94E0E44884425D
:1016C00008D101211020FFF710FA00211020FFF7A8
:1016D0000CFA88E0DF48844208D101212020FFF77E
:1016E00004FA00212020FFF700FA7CE0DA48844267
:1016F00008D101214014FFF7EBF900216014FFF736
:10170000E7F970E0D548844209D10121C804FFF708
:10171000DFF900214FF40020FFF7DAF963E0D04849
:10172000844209D101210805FFF7D2F900214FF4C5
:101730008010FFF7CDF956E0CA48844209D1012153
:101740004805FFF7C5F900214FF40010FFF7C0F975
:1017500049E0C548844208D101214020FFF7C5F97E
:1017600000214020FFF7C1F93DE0C048844208D184
:1017700001218020FFF7B9F900218020FFF7B5F99A
:1017800031E0BB48844208D101218015FFF7ADF953
:101790000021A015FFF7A9F925E0B648844209D138
:1017A00001210804FFF794F900214FF48030FFF77E
:1017B0008FF918E0B048844209D101214804FFF7AD
:1017C00087F900214FF40030FFF782F90BE0AB48B6
:1017D000844208D101218804FFF77AF900214FF4EF
:1017E0008020FFF775F910BD00220288944B9842C3
:1017F0000ED0994B98420BD0B0F1804F08D0914B4E
:10180000984205D0904B984202D0904B984204D118
:101810004FF68F731A404B881A438D4B984207D06E
:101820008C4B984204D04FF6FF431A40CB881A43A2
:1018300002808B8883850B880385814B98420BD06F
:10184000854B984208D08B4B984205D08A4B9842E2
:1018500002D08A4B984201D10B7A038601238382FE
:10186000704770B5002400220023058C4FF6FE76E9
:1018700035400584028C8388048B4FF68F752C408D
:10188000B51E2C400D882C43751E2A400D892A4315
:101890004D882A436A4DA8420BD06F4DA84208D00C
:1018A000744DA84205D0744DA84202D0734DA84291
:1018B00013D14FF6F7752A404D892A434FF6FB7531
:1018C0002A408D882A434FF6FF652B404FF6FF557F
:1018D0002B408D892B43CD892B4383800483CD8876
:1018E0008586028470BD70B5002400220023058C1B
:1018F0004FF6EF7635400584028C8388048B48F6DA
:10190000FF752C404FF6FF452C400D884FF6FF76B3
:1019100006EA05252C434FF6DF752A400D8906EAB5
:1019200005152A434D8806EA05152A43444DA84269
:1019300002D0494DA8421DD14FF67F752A404D89EE
:101940004FF6FF7606EA05152A434FF6BF752A4083
:101950008D8806EA05152A434FF6FF352B404FF2D6
:10196000FF752B408D8906EA85052B43CD8906EA54
:1019700085052B4383800483CD880587028470BD51
:1019800070B5002400220023058C4FF6FF66354019
:101990000584028C8388848B4FF68F752C404FF61C
:1019A000FC752C400D882C434FF6FF552A400D89BD
:1019B0004FF6FF7606EA05252A434D8806EA0525F7
:1019C0002A431F4DA84202D0234DA8421DD14FF2F9
:1019D000FF752A404D894FF6FF7606EA05252A4312
:1019E0004FF6FF352A408D8806EA05252A434EF634
:1019F000FF752B404DF6FF752B408D8906EA0515C6
:101A00002B43CD8906EA05152B4383808483CD883B
:101A10008587028470BD70B5002200230024058CE8
:101A20004EF6FF7635400584038C8488828B48F619
:101A3000FF752A404FF6FF452A400D8820E0000040
:101A4000002C01400004004000080040000C004051
:101A5000001000400014004000340140004C0140E0
:101A6000005001400054014000180040001C00409C
:101A70000020004000400140004401400048014077
:101A80004FF6FF7606EA05252A434DF6FF752B40F3
:101A90000D8906EA05352B434D8806EA05352B43AB
:101AA000FA4DA84202D0FA4DA84208D14BF6FF7574
:101AB0002C408D894FF6FF7606EA85152C438480ED
:101AC0008283CD88A0F84050038470BD828B4FF292
:101AD000FF331A408283828B4FF6FF7303EA0123A0
:101AE0001A4382837047F0B50C4615460022002148
:101AF0000026078C4EF6FF7C07EA0C070784828BD2
:101B0000018C4FF6FF7707EA043640F6FF473A406C
:101B10004FF6FF7707EA05273A434FF6FF7707EAC4
:101B200003373A43D94FB8420ED0D94FB8420BD001
:101B3000B0F1804F08D0D74FB84205D0D64FB84249
:101B400002D0D64FB84206D14DF6FF77394046F461
:101B50008057394305E047F6FF57394044F4805732
:101B6000394382830184F0BD828B4FF6F3731A40B0
:101B70008283828B0A4382837047F0B50C461546F8
:101B8000002200210026078C4FF6FF6C07EA0C07A5
:101B90000784828B018C4FF6FF7707EA04264FF605
:101BA0000C773A404FF6FF7707EA03172F433A4383
:101BB000B64FB8420ED0B64FB8420BD0B0F1804FFE
:101BC00008D0B44FB84205D0B34FB84202D0B34F9B
:101BD000B84206D14FF6FF57394046F48077394373
:101BE00005E04FF2FF57394044F480773943828350
:101BF0000184F0BD028B4FF2FF331A400283028B47
:101C00004FF6FF7303EA01231A4302837047F0B5CE
:101C10000C461546002200210026078C4FF6EF7C6B
:101C200007EA0C070784028B018C4FF6FF7707EA5F
:101C3000041640F6FF473A404FF6FF7707EA0337AE
:101C40003A434FF6FF7707EA05273A438F4FB842EA
:101C50000ED08F4FB8420BD0B0F1804F08D08D4FCF
:101C6000B84205D08C4FB84202D08C4FB84206D152
:101C70004FF6DF77394046F01007394305E04FF65D
:101C80005F77394044F01007394302830184F0BD87
:101C9000028B4FF6F3731A400283028B0A430283CE
:101CA0007047F0B50C46154600220021068C4FF611
:101CB000FE773E400684028B018C4FF60C76324054
:101CC0007E1C06EA03162E433243704EB0420ED0FD
:101CD0006F4EB0420BD0B0F1804F08D06D4EB04285
:101CE00005D06D4EB04202D06C4EB04206D14FF6D8
:101CF000FD76314044F00106314305E04FF6F576BC
:101D0000314044F00106314302830184F0BD70B5D7
:101D100005460C465D4885420ED05D4885420BD095
:101D2000B5F1804F08D05B48854205D05A488542BE
:101D300002D05A48854200D100E000BF208850B947
:101D40002389A28861882846FFF7ABFFE1882846EF
:101D5000FFF79EFF25E0208804280AD12389A28866
:101D600061882846FFF753FFE1882846FFF742FFC6
:101D700017E0208808280AD12389A288618828468C
:101D8000FFF7FBFEE1882846FFF7EEFE09E0238916
:101D9000A28861882846FFF7A6FEE1882846FFF75B
:101DA00095FE70BD2DE9F04105460C460026012741
:101DB000608808B9022600E00026A088012801D129
:101DC000022700E001272088A0B92389A288618822
:101DD0002846FFF766FFE1882846FFF759FF238969
:101DE0003A4631462846FFF712FFE1882846FFF7BA
:101DF00001FF13E02389A28861882846FFF707FFC7
:101E0000E1882846FFF7F6FE23893A463146284600
:101E1000FFF747FFE1882846FFF73AFFBDE8F0816A
:101E20000A884B881A438B881A43CB881A430B893C
:101E30001A434B891A438B891A43A0F844207047F0
:101E40004FF6FF71818000210180C18041800172C5
:101E500070470021018041808180C18001814181E2
:101E60008181C181704700210180418001218180F1
:101E70000021C18001817047002101804180818063
:101E8000C18001814181818170470000002C0140A7
:101E9000003401400004004000080040000C0040F5
:101EA00021B1028842F00102028004E002884FF66C
:101EB000FE731A400280704731B1B0F8442042F4FA
:101EC0000042A0F8442005E0B0F84420C2F30E021E
:101ED000A0F8442070471AB183890B43838102E044
:101EE00083898B43838170478182704741EA020373
:101EF000A0F8483070471AB183890B43838102E010
:101F000083898B438381704701894FF6F8721140B2
:101F1000018170470A46002101894FF68F731940ED
:101F200011430181704730B504460D4629462046CD
:101F3000FFF7F0FF208940F00700208130BD2DE938
:101F4000F04104460D4616461F46602D06D13B461D
:101F5000012231462046FFF75AFE05E03B460122AA
:101F600031462046FFF79DFE29462046FFF7D2FF67
:101F7000208940F007002081BDE8F08130B50C4693
:101F800000210189C9B24FF6FF7505EA0325154303
:101F900025432943018130BD2DE9F04105460E4618
:101FA00017469846002443463A4631462846FFF7EE
:101FB000E5FF2C894FF6F870044044F007044FF613
:101FC0008F70044044F070042C81BDE8F081F0B5BE
:101FD00004460D4616461F463B46324629462046D5
:101FE000FFF7CCFF208940F480402081F0BD0185BF
:101FF000828270470A46002101884FF68F7319408C
:10200000114301807047F0B50C4615461E4600216D
:10201000002200230189028B038C4FF6F8773940A8
:1020200021434FF6FC473A4040F201173A434FF63E
:10203000DD773B404FF6FF7707EA06172F433B4318
:10204000018102830384F0BD0A460021018B4FF613
:102050008F7319401143018370470A460021018B99
:1020600048F6FF7319404FF6FF7303EA0223194342
:10207000018370470A460021818B4FF68F73194008
:102080001143818370470A460021818B48F6FF7314
:1020900019404FF6FF7303EA022319438183704707
:1020A00021B1028842F08002028004E002884FF6EB
:1020B0007F731A400280704721B1828842F0040287
:1020C000828004E082884FF6FB731A40828070475A
:1020D00021B1828842F00802828004E082884FF6B3
:1020E000F7731A408280704721B1828842F0010262
:1020F000828004E082884FF6FE731A408280704727
:102100000A460021018B4FF6F773194011430183F2
:1021100070470A460021018B4FF2FF7319404FF6BA
:10212000FF7303EA02231943018370470A46002123
:10213000818B4FF6F77319401143818370470A462C
:102140000021818B4FF2FF7319404FF6FF7303EAB2
:1021500002231943818370470A460021018B4FF601
:10216000FB7319401143018370470A460021018B1C
:102170004FF6FF3319404FF6FF7303EA022319436A
:10218000018370470A460021818B4FF6FB7319408B
:102190001143818370470A460021818B4FF6FF333C
:1021A00019404FF6FF7303EA0223194381837047F6
:1021B0000A460021018B4FF67F73194011430183BA
:1021C00070470A460021018BC1F30E014FF6FF73E1
:1021D00003EA02231943018370470A460021818BD9
:1021E0004FF67F7319401143818370470A460021DF
:1021F000818BC1F30E014FF6FF7303EA02231943EB
:10220000818370470A460021018C4FF6FD73194007
:102210001143018470470A460021018C4FF6F77381
:1022200019401143018470470A460021018C4FF682
:10223000DF7319404FF6FF7303EA02131943018459
:1022400070470A460021018C4FF67F7319404FF604
:10225000FF7303EA02131943018470470A46002101
:10226000018C4FF6FF5319404FF6FF7303EA022328
:102270001943018470470A460021018C4FF2FF7315
:1022800019404FF6FF7303EA022319430184704794
:102290000A460021018C4DF6FF7319404FF6FF737B
:1022A00003EA023319430184704730B50023012447
:1022B0008C40A3B2048C9C430484048C02FA01F584
:1022C000ADB22C43048430BD30B5002304248C40CF
:1022D000A3B2048C9C430484048C02FA01F5ADB2D1
:1022E0002C43048430BD70B50346002000241846FA
:1022F000183001258D40ACB21D8CA5431D8409B159
:10230000082909D100EB6100056825F0700505601A
:102310000568154305600EE00D1FC5F34E05284402
:10232000056825F4E045056005684FF6FF7606EA86
:1023300002263543056070BD21B1028842F00202D9
:10234000028004E002884FF6FD731A400280704755
:1023500021B1028842F00402028004E002884FF6B4
:10236000FB731A400280704721B1828842F08002DC
:10237000828004E082884FF67F731A408280704723
:1023800002884FF6F7731A40028002880A430280DF
:10239000704782884FF68F731A40828082880A4382
:1023A0008280704702894FF6F8731A4002810289D1
:1023B0000A430281704702894FF67F731A400281F7
:1023C00002890A4302817047818470478185704782
:1023D000818670470187704781877047A0F8401059
:1023E000704702884FF6FF431A40028002880A4372
:1023F000028070470146888E70470146088F7047FB
:102400000146888F70470146B1F840007047014689
:10241000888C70470146088D704702460020138A59
:102420000B400BB1012000E000207047CA4302823C
:10243000704730B50246002000230024158A05EAC3
:102440000103958905EA010413B10CB1012000E0F4
:10245000002030BDCA4302827047000010B5044618
:10246000FE48844209D101214806FEF73EFB0021C7
:102470004FF00070FEF739FB08E001218806FEF7F7
:1024800034FB00214FF08060FEF72FFB10BD30B50C
:10249000024600200023146824F00204146014682B
:1024A00044F00104146000E05B1C546804F0010473
:1024B0001CB94FF6FF74A342F6D1546804F001042E
:1024C0000CB900206CE08C79012C04D1146844F024
:1024D0008004146003E0146824F080041460CC7954
:1024E000012C04D1146844F04004146003E0146823
:1024F00024F0400414600C7A012C04D1146844F0D8
:102500002004146003E0146824F0200414604C7A62
:10251000012C04D1146844F01004146003E0146822
:1025200024F0100414608C7A012C04D1146844F057
:102530000804146003E0146824F008041460CC7AE2
:10254000012C04D1146844F00404146003E01468FE
:1025500024F0040414608C78A407CD7844EA056460
:102560000D7944EA05444D7944EA05540D886D1E01
:102570002C43D461146824F001041460002300E0AB
:102580005B1C546804F001041CB14FF6FF74A342B5
:10259000F6D1546804F001040CB1002000E00120E1
:1025A00030BD10B50021837A012202FA03F1AC4A52
:1025B000126842F00102AA4B1A60A94A1C32126842
:1025C0008A43A74B1C331A60027BCAB9A44A0C3257
:1025D00012688A43A24B0C331A604288C38842EACD
:1025E00003439F4A4032847A42F834300288838819
:1025F00042EA03439A4A4032847A02EBC4025360AF
:10260000027B012A19D1964A0C3212680A43944B74
:102610000C331A604288038842EA0343904A4032EE
:10262000847A42F83430C288838842EA03438C4A71
:102630004032847A02EBC4025360C27A3AB9884AC3
:10264000121D12688A43864B1B1D1A6006E0844ADD
:10265000121D12680A43824B1B1D1A60028932B98F
:102660007F4A143212688A437D4B14331A60028900
:10267000012A06D17A4A143212680A43784B14337D
:102680001A60427B012A06D1754A1C3212680A433D
:10269000734B1C331A60724A126822F00102704BAD
:1026A0001A6010BD00218171C17101724172817285
:1026B000C1728170C1700321017102214171012138
:1026C000018070476649096841F00101644A116060
:1026D0001146096843F60E729143614A1160114632
:1026E000096841EA002111601146096821F00101E1
:1026F0001160704721B1026842F48032026003E049
:10270000026822F4803202607047E1B1026842F050
:10271000800202604FF4C272125842F480734FF488
:10272000C27213504FF4CA72125842F480734FF4BD
:10273000CA7213504FF4D272125842F480734FF49D
:10274000D27213501BE0026822F0800202604FF444
:10275000C272125822F480734FF4C27213504FF4B5
:10276000CA72125822F480734FF4CA7213504FF495
:10277000D272125822F480734FF4D2721350704701
:1027800010B502460020936803F08063B3F1806FB8
:1027900000D110E0936803F00063B3F1006F01D142
:1027A000012008E0936803F08053B3F1805F01D10A
:1027B000022000E00420042879D002F5C07303EB66
:1027C00000131B6803F0010402F5C07303EB001350
:1027D0001C600B7A7BB94B7A0C8843EA445302F5B0
:1027E000C07404EB00142468234302F5C07404EBA6
:1027F0000014236010E00B7A4C6843EAC4034C7A5F
:10280000234302F5C07404EB00142468234302F54B
:10281000C07404EB001423608B7A03F00F038B72F7
:1028200002F5C07303EB00135B6823F00F0402F59D
:10283000C07303EB00135C6002F5C07303EB00137D
:102840005B688C7A234302F5C07404EB0014636068
:102850008B7B1C064B7B44EA034403E0006400408E
:10286000006600400B7B44EA0323CC7A234302F545
:10287000C07404EB0014A3608B7C1C064B7C44EA00
:1028800003440B7C44EA0323CC7B234302F5C0744E
:1028900004EB0014E36002F5C07303EB00131B6844
:1028A00043F0010402F5C07303EB00131C6010BD7C
:1028B00010B50246002321B1012907D002290FD10A
:1028C00009E09068F94C00EA04030BE09068F84CCA
:1028D00000EA040306E09068F64C00EA040301E015
:1028E000002300BF00BFF44C181BA34216D007DC26
:1028F00083B16FF08060184470B1022818D111E0E4
:10290000B0F5007F10D0ED4C204448B1B0F5003F49
:102910000ED10BE002230DE000230BE0002309E0C1
:10292000002307E0012305E0012303E0012301E088
:10293000002300BF00BFD8B210BD21B1012907D0CC
:1029400002290FD109E0826842F0800282600AE029
:10295000826842F40042826005E0826842F400022C
:10296000826000E000BF00BF704710B500F5D8736B
:1029700003EB01131B6803F004031372137A53B9BA
:1029800000F5D87303EB01131B6840F2FF7404EAEF
:102990005353136009E000F5D87303EB01131B6870
:1029A0006FF0604404EAD303536000F5D87303EB7F
:1029B00001131B6803F00203537200F5D87303EB95
:1029C00001135B6803F00F03937200F5D87303EBF8
:1029D00001135B681B0AD37400F5D87303EB011372
:1029E0009B68D37200F5D87303EB01139B681C0A34
:1029F000147300F5D87303EB01139B681C0C54731C
:102A000000F5D87303EB01139B681B0E937300F55D
:102A1000D87303EB0113DB68D37300F5D87303EBB2
:102A20000113DB681C0A147400F5D87303EB01135F
:102A3000DB681C0C547400F5D87303EB0113DB68DE
:102A40001B0E937421B9C36843F02003C36003E0F5
:102A5000036943F02003036110BD21B9C26842F04D
:102A60002002C26003E0026942F020020261704766
:102A70000246002019B9D36803F0030006E00129DB
:102A800003D1136903F0030000E00020704710B584
:102A900002460B4600204FF6FF71BBB9146824F0C4
:102AA000020444F00104146000E0491E546804F07C
:102AB0000304012C01D00029F7D1546804F0030469
:102AC000012C01D0002032E0012030E0012B13D195
:102AD000146824F00304146000E0491E546804F0F4
:102AE00003040CB10029F8D1546804F003040CB1BC
:102AF00000201CE001201AE0022B17D1146824F0FA
:102B0000010444F00204146000E0491E546804F01B
:102B10000304022C01D00029F7D1546804F0030407
:102B2000022C01D0002002E0012000E0002010BDB6
:102B3000014600200A6822F0010242F002020A6007
:102B40004A6802F00302022A00D1012070470146C0
:102B50004FF6FF7200200B6823F002030B6000E0C9
:102B6000521E4B6803F00203022B01D1002AF7D159
:102B70004B6803F00203022B00D00120704701468E
:102B800000208A6902F070007047014600208A69BF
:102B9000100E7047014600208A69C2F30740704753
:102BA0001AB143690B43436102E043698B434361BC
:102BB000704710B50246002001F4700343B19369D9
:102BC000C1F3130423400BB101202DE000202BE0C2
:102BD00001F0807343B15368C1F3130423400BB178
:102BE000012021E000201FE001F0006343B1936861
:102BF000C1F3130423400BB1012015E0002013E0C2
:102C000001F0007343B1D368C1F3130423400BB147
:102C1000012009E0002007E01369C1F313042340F9
:102C20000BB1012000E0002010BD0022244B99428E
:102C300002D10023836111E0C1F3130201F000739C
:102C40000BB1C2600AE001F080630BB1026105E0E4
:102C500001F000630BB1826000E042607047024601
:102C6000002002EA01030BB1012000E000207047C0
:102C700070B504460D46002660692840002872D0D1
:102C8000B5F5807F69D01DDC082D42D006DC012D12
:102C90002DD0022D31D0042D7FD134E0102D3ED027
:102CA000202D42D0402D78D145E0000003000004E3
:102CB0000003000800000310000100080001FFF7F6
:102CC0007000F030B5F5004F61D009DCB5F5007F3C
:102CD0004AD0B5F5806F4DD0B5F5006F5DD150E0AD
:102CE000B5F5803F2DD0B5F5003F56D12FE0A06857
:102CF0005549FFF7B4FF064651E0E0680321FFF7AE
:102D0000AEFF06464BE0E0680821FFF7A8FF064645
:102D100045E0E0681021FFF7A2FF06463FE020698A
:102D20000321FFF79CFF064639E020690821FFF7E1
:102D300096FF064633E020691021FFF790FF064614
:102D40002DE060680821FFF78AFF064627E06068EB
:102D50001021FFF784FF064621E0A0690121FFF75B
:102D60007EFF06461BE01BE0A0690221FFF777FF0C
:102D7000064614E0A0690421FFF771FF06460EE045
:102D80000BE0A0697021FFF76AFF064607E0606864
:102D90000421FFF764FF064601E0002600BF00E0C3
:102DA0000026304670BDB1F5007F3AD00FDC2029F7
:102DB00028D006DC01291CD004291DD0082940D1C7
:102DC0001DE0402921D0B1F5807F3AD126E0B1F550
:102DD000004F31D006DCB1F5806F25D0B1F5006F22
:102DE0002FD124E0B1F5803F12D0B1F5003F28D1BA
:102DF00011E0154A826025E00822C26022E010221C
:102E0000C2601FE0082202611CE01022026119E08A
:102E10000822426016E01022426013E00422426061
:102E200010E0042242600DE0042242600AE0002229
:102E300082610422426005E0002282610422426035
:102E400000E000BF00BF7047010101000948804752
:102E500009480047FEE7FEE7FEE7FEE7FEE7FEE77C
:102E6000FEE7FEE7FEE7FEE704480549054A064B94
:102E70007047000087020008ED000008A000002055
:102E8000A0060020A0020020A00200202DE9F84F9B
:102E900005460C46E5B90A2094FBF0F0032190FBAF
:102EA000F1F201FB1200C0F10206204602F0ACF97B
:102EB0008246854902F0E6F8814602F0B7F80746F7
:102EC0003A460B4681A18648009600F081FF10E04B
:102ED000204602F099F981467B4902F0D3F8064674
:102EE00002F0A4F807463A460B467EA17C4800F063
:102EF0006FFF8148007818B980A1794800F068FF19
:102F00007749062000F0C0FCBDE8F88F70B5044694
:102F1000012C31D17E480088642190FBF1F0C5B2CC
:102F20002946002000F0CCFE794800880A2190FB59
:102F3000F1F090FBF1F201FB12000A30C5B2294614
:102F4000012000F0BDFE724800880A2190FBF1F2DA
:102F500001FB1200C5B22946022000F0B1FE6D4807
:102F600000886B49088008460088B0F57A7F7BD1DD
:102F700003206949087077E0022C25D16448008855
:102F8000642190FBF1F0C5B22946002000F098FEC4
:102F90005F4800880A2190FBF1F090FBF1F201FB01
:102FA00012000A30C5B22946012000F089FE5848B7
:102FB00000880A2190FBF1F201FB1200C5B22946FC
:102FC000022000F07DFE4FE0032C29D140F2E730D3
:102FD0004F49088008460088642190FBF1F0C5B293
:102FE0002946002000F06CFE494800880A2190FB29
:102FF000F1F090FBF1F201FB12000A30C5B2294654
:10300000012000F05DFE424800880A2190FBF1F2A9
:1030100001FB1200C5B22946022000F051FE23E058
:1030200014BB3C4800880A2190FBF1F0401E0321AC
:1030300090FBF1F201FB1200C0F10200C5B21421B5
:10304000284600F03DFE334800880A2190FBF1F04D
:10305000032190FBF1F201FB1200C0F10200C5B2A6
:103060000821284600F02CFE2A4801882046FFF758
:103070000DFF70BD10B54FF4FA7000F08FF800F03E
:10308000ADF800F0F4F800F09FFB41F61F4140F26C
:10309000E73000F065FA00F02BFE00F09FFA1FA168
:1030A000002000F0F1FB22A1022000F0EDFB25A1A1
:1030B000042000F0E9FB10BDFFF7DCFF03E0164839
:1030C0000078FFF723FFFAE7000020414255473A16
:1030D00025352E316673206269743A25640000003C
:1030E000300000204255473A25352E316673206264
:1030F00069743A2D000000002D0000202D2D2D2D8B
:103100002D2D2D2D2D2D2D2D2D2D2D2D00000000A3
:103110002A000020280000202C000020204E616D95
:10312000653A205858585858585858200000000000
:10313000204E756D3A20315858585858585858589C
:10314000200000002020205461736B3A54494D4503
:1031500052200000704700BFFEE700BFFEE700BF3F
:10316000FEE700BFFEE7704770477047704700EB0F
:10317000C001C9004FF0E022516100219161052199
:10318000116100BF4FF0E021096901F4803100298D
:10319000F8D004214FF0E0221161704700B50346DA
:1031A00003E04FF47A70FFF7E2FF181EA3F101016C
:1031B0008BB2F6D100BD10B5044603E04FF47A702F
:1031C000FFF7ECFF201EA4F101018CB2F6D110BD77
:1031D00010B54FF4A060FDF7D7F810BD10B5FDF79E
:1031E000EFFA4FF48030FDF70BFBFDF748FB044688
:1031F000012C24D14FF4E0110004FDF769FB0020FD
:10320000FDF783FBA002FDF789FB0020FDF78FFB94
:103210000220FDF7A9FE1020FDF7BAFE0120FDF700
:1032200063FB00BF3920FDF70EFB0028FAD0022017
:10323000FDF75DFB00BFFDF763FB0828FBD110BD68
:1032400008B501211C20FDF729FC01214805FDF7E7
:1032500032FCC020ADF800001C208DF803000320D4
:103260008DF802006946B148FDF75CF908BD1FB54D
:10327000FFF7E6FF0020ADF804004BF6FF70ADF855
:103280000600C020ADF808004FF48060ADF80A00D9
:103290000001ADF80C00A64800906946A548FDF76E
:1032A0007AFC0121A348FDF7F4FC1FBD2DE9F04194
:1032B00005460F4614461E4601219E48FDF70DFDAA
:1032C00000BF9D499B48FDF7E9FD0028F9D0002289
:1032D00029469848FDF757FD00BF98499548FDF7E6
:1032E000DDFD0028F9D039469248FDF746FD00BFC4
:1032F0009249891C8F48FDF7D1FD0028F8D00CE0D9
:1033000021788C48FDF739FD641C00BF8B49891C6E
:103310008848FDF7C3FD0028F8D0301EA6F1010152
:103320008EB2EDD101218348FDF7E3FCBDE8F081C9
:1033300070B504460E46154601217E48FDF7CDFCCA
:1033400000BF7D497B48FDF7A9FD0028F9D0002288
:1033500021467848FDF717FD00BF78497548FDF70D
:103360009DFD0028F9D031467248FDF706FD00BFEB
:103370007249891C6F48FDF791FD0028F8D0294655
:103380006C48FDF7FAFC00BF6C49891C6948FDF7E1
:1033900085FD0028F8D001216648FDF7AAFC70BD24
:1033A0002DE9F04106460F4615461C4600BF4FF476
:1033B00000316048FDF794FD0028F8D101215D48F7
:1033C000FDF78BFC00BF5C495A48FDF767FD0028FC
:1033D000F9D0002231465748FDF7D5FC00BF5749C8
:1033E0005448FDF75BFD0028F9D001215148FDF755
:1033F00050FC39464F48FDF7C0FC00BF4F49891CBF
:103400004C48FDF74BFD0028F8D001214948FDF755
:1034100064FC00BF48494748FDF740FD0028F9D04B
:10342000012231464348FDF7AEFC00BF4249491C2A
:103430004048FDF733FD0028F8D016E0012C07D1F5
:1034400000213C48FDF761FC01213A48FDF751FCA1
:1034500039493F313748FDF721FD30B13548FDF797
:103460008EFC28706D1C601E84B2002CE6D10121F8
:103470003048FDF74AFCBDE8F08170B504460D46C2
:1034800000BF4FF400312B48FDF72AFD0028F8D18A
:1034900001212848FDF721FC00BF27492548FDF7F9
:1034A000FDFC0028F9D0002221462248FDF76BFCE4
:1034B00000BF22491F48FDF7F1FC0028F9D0012187
:1034C0001C48FDF7E6FB29461A48FDF756FC00BFED
:1034D0001A49891C1748FDF7E1FC0028F8D00121A2
:1034E0001448FDF7FAFB00BF13491248FDF7D6FC5C
:1034F0000028F9D0012221460E48FDF744FC00BF08
:103500000D49491C0B48FDF7C9FC0028F8D00021E3
:103510000848FDF7FAFB01210648FDF7EAFB0548DC
:10352000FDF72DFC0646304670BD0000000C014042
:10353000400D03000054004001000300820007001A
:1035400008B51D208DF8000003208DF801008DF8CE
:10355000020001208DF803006846FCF71AFF08BD41
:103560003EB505460C4601210220FDF7A4FAFFF7FF
:10357000E7FFADF80450ADF800400020ADF80200C0
:10358000ADF8060069461348FEF72EF901221146F0
:103590001048FEF7A0FC01210E48FEF781FC3EBD5D
:1035A00010B5002401210B48FEF743FF88B101212B
:1035B0000848FEF74FFF08480088401C064908806D
:1035C0000846008840F2EA31884202D100200249D0
:1035D000088010BD00040040280000200EB5012125
:1035E0000420FDF75BFA01210846FDF757FA002198
:1035F0000846FDF7ADF8012000908DF80600002088
:103600008DF804000C208DF8050001210020FDF745
:103610009FF8022000906846FDF792FF042000907A
:103620006846FDF78DFF082000906846FDF788FF8B
:1036300006208DF8080001208DF80B0002208DF87F
:10364000090001208DF80A0002A8FCF7A2FE07205D
:103650008DF8080001208DF80B0002208DF809007C
:1036600001208DF80A0002A8FCF793FE08208DF8CF
:10367000080001208DF80B0002208DF809008DF85C
:103680000A0002A8FCF785FE09208DF80800012039
:103690008DF80B0002208DF8090003208DF80A0038
:1036A00002A8FCF776FE0EBD10B50A20FFF776FDE6
:1036B0000220FDF7ABFF28B101202149087000204E
:1036C000204908800220FDF7B2FF10BD10B50A2086
:1036D000FFF764FD0420FDF799FF90B118480078CA
:1036E000012803D10220164908700AE01448007826
:1036F000022806D101201249087013480088114998
:1037000008800420FDF793FF10BD10B50A20FFF7D5
:1037100045FD0820FDF77AFF68B10C48007818B91C
:1037200001200A49087006E008480078012802D103
:103730000020064908700820FDF779FF10BD000041
:103740002C000020280000202A0000202D0000204E
:1037500000B587B01C228FA1684600F038FC1C23FE
:103760006A4600217820FFF7A1FD07B000BD70B5C3
:10377000B0241BE0224600217820FFF7D9FD10225B
:1037800000217820FFF7D4FD002211467820FFF7B2
:10379000CFFD002506E0002240217820FFF7C8FD7C
:1037A000681CC5B2842DF6DB601CC4B2B82CE1DB0A
:1037B00070BD08B57EA00068009003236A46002112
:1037C0007820FFF773FD08BD10B5FFF7F2FFFFF794
:1037D000CEFFFFF7BDFF10BD10B5044681220021CA
:1037E0007820FFF7A5FD224600217820FFF7A0FDF5
:1037F00010BD2DE9F04705460C4616464FF0000A6D
:10380000A01CC4B2D1463AE005F1B000C2B200211A
:103810007820FFF78DFD2746E01704EB10700011AC
:103820001030C2B200217820FFF782FDE01704EBD0
:1038300010700011A4EB0010C2B200217820FFF735
:1038400077FD4FF0000811E00AEB0610A0F50070BC
:1038500058490A5C40217820FFF76AFD0AF101000F
:1038600000F0FF0A08F1010000F0FF08B8F1080FAE
:10387000EADB681CC5B209F1010000F0FF09B9F1EB
:10388000020FC1DBBDE8F08770B506460C46002587
:1038900008E014F8012BE806010E3046FFF7A9FFF7
:1038A000681CC5B220780028F3D170BD2DE9F0471F
:1038B00005460C4616464FF0000AD14638E005F1A1
:1038C000B000C2B200217820FFF732FD2746E01792
:1038D00004EB107000111030C2B200217820FFF705
:1038E00027FDE01704EB10700011A4EB0010C2B22A
:1038F00000217820FFF71CFD4FF000080FE00AEBD5
:1039000046102D490A5C40217820FFF711FD0AF18D
:10391000010000F0FF0A08F1010000F0FF08B8F113
:10392000100FECDB681CC5B209F1010000F0FF09C3
:10393000B9F1020FC3DBAF2200217820FFF7F8FCBA
:10394000BDE8F08770B5002420E004F1B000C2B2F9
:1039500000217820FFF7ECFC102200217820FFF7EF
:10396000E7FC022200217820FFF7E2FC002509E0B5
:1039700005EBC41011490A5C40217820FFF7D8FC00
:10398000681CC5B2802DF3DB601CC4B2082CDCDBE4
:1039900070BD0000AE0010D580A83FD300B0408DB0
:1039A00014A1C8DA1281FFD9F1DB302000A4A6AF40
:1039B000AE8D1000C8520008C858000848590008C9
:1039C00000B589B001210420FDF768F801214806FF
:1039D000FDF771F84FF48050ADF8200003208DF80A
:1039E000220018208DF8230008A97248FCF79AFDE0
:1039F0004FF40060ADF8200048208DF8230008A99E
:103A00006C48FCF78FFD00208DF81A008DF81B0024
:103A10008DF81C0001208DF81D0000208DF81E007F
:103A20008DF81F008DF816008DF8170007208DF80F
:103A3000180006208DF819000920ADF8140005A91A
:103A40005D48FEF724FD00208DF80E008DF80F0074
:103A500001208DF810000020ADF80400ADF806003C
:103A6000ADF80800ADF80A00ADF80C0001208DF8A3
:103A7000110001A8FEF795FD002009B000BDF0B5CA
:103A800085B007460D4600241220009000200190CA
:103A90008DF808008DF809008DF80A5000BF05E088
:103AA000395D0DF10B000155601C84B2AC42F7DBAF
:103AB00069464148FEF764FE0646002401E0601CAA
:103AC00084B231463C48FEF7F3FE18B940F6FF7069
:103AD0008442F4DB40F6FF70844202DB012005B033
:103AE000F0BD0020FBE730B585B005460021324827
:103AF000FEF7BEFF10B9002005B030BD6A460021B8
:103B00002D48FEF732FF002404E00DF10B00005DAC
:103B10002855641C082CF8D39DF80A00ECE700B582
:103B200089B00020019000908DF808000490059065
:103B30008DF818008DF819008DF81A008DF8230003
:103B400001900AE000210DF11B009DF80420815432
:103B50009DF80400401CC0B201909DF804000828A4
:103B6000F0DB04AA00211448FEF7FFFE9DF81A00BE
:103B70000090049812281AD19DF81A008DF80800B8
:103B8000002001900DE00DF11B009DF80410405C39
:103B900002A99DF8042088549DF80400401CC0B27E
:103BA00001909DF804009DF800108842EBDB09B0FD
:103BB00000BD0000000801400064004010B5012273
:103BC00011037C48FCF75FFD0122D1027948FCF724
:103BD0005AFD0120FFF7CBFA00224FF480517548BF
:103BE000FCF751FD0120FFF7C2FA00224FF40061FB
:103BF0007048FCF748FD0120FFF7B9FA10BD10B579
:103C000000224FF480516B48FCF73DFD0122D102A8
:103C10006848FCF738FD0120FFF7A9FA01221103DB
:103C20006448FCF730FD0120FFF7A1FA10BD70B524
:103C30000446254600224FF480515E48FCF723FDE0
:103C400000224FF400615B48FCF71DFD002628E0D0
:103C500000224FF400615748FCF715FD0120FFF7E3
:103C600086FA05F0010040B1012211035148FCF72A
:103C70000AFD0120FFF77BFA08E000224FF4805193
:103C80004C48FCF700FD0120FFF771FA0122D10238
:103C90004848FCF7F8FC0120FFF769FA6D10701C2A
:103CA000C6B2082ED4DB00224FF480514148FCF705
:103CB000EAFC00224FF400613E48FCF7E4FC70BDD2
:103CC00030B587B004460D4618223BA101A800F08C
:103CD0007EF9FFF773FF04F1C001C8B2FFF7A7FF39
:103CE00001A9485DFFF7A3FFFFF789FF07B030BDCB
:103CF00038B501211C20FCF7D1FE4FF4C050ADF8BF
:103D0000000010208DF8030003208DF802006946A2
:103D10002848FCF707FC012211032648FCF7B3FCF6
:103D20000122D1022348FCF7AEFCFFF747FF4420F5
:103D3000FFF77DFFFFF763FFFFF740FF8C20FFF7E2
:103D400076FFFFF75CFF002405E014212046FFF713
:103D5000B7FF601CC4B2082CF7DB38BD10B50446B1
:103D6000FFF72CFFC820FFF762FF2046FFF75FFF39
:103D7000FFF745FF10BD70B586B004460D4618220A
:103D80000DA1684600F023F9FFF718FF04F1C00108
:103D9000C8B2FFF74CFF002605E01DF80500FFF74D
:103DA00046FF701CC6B2102EF7DBFFF728FF06B0E7
:103DB00070BD0000000801403F065B4F666D7D0747
:103DC0007F6FBF86DBCFE6EDFD87FFEF00000000D1
:103DD0000FB41CB5074B06AA7B44694600900598B2
:103DE00000F097FB0020694600F0A6FB1CBC5DF8C4
:103DF00014FB00005D07000070B50446856900688B
:103E0000C10601D5302600E02026C00707D070BDCE
:103E1000D4E9012130469047206A401C20626D1E83
:103E2000F6D570BD70B5044685690078C00707D126
:103E300070BDD4E9012120209047206A401C2062F7
:103E40006D1EF6D570BD00002DE9F0410646002438
:103E500010687529314616A510D0AFF300800028F0
:103E600002DA404213A507E031688A0701D512A59E
:103E700002E0490704D511A5012401E0AFF3008059
:103E800000210A2206F1240709E0B0FBF2FCB0FB96
:103E9000F2F302FB1C00303078541846491C00280D
:103EA000F3D123462A463046BDE8F04100F0C4B8BD
:103EB000000000002D0000002B000000200000008A
:103EC0002DE9F0474FF0000A89460446C0F820A0CB
:103ED0002046E1688847002876D0252806D0D4E916
:103EE00001219047206A401C2062F1E7E1682046EA
:103EF00000258847C4F81CA006460027C4F818A06F
:103F00002A2E09D0304601F06EF838B304EB87084A
:103F1000303EC8F8186019E059F8041B204604EB3D
:103F200087029161E1688847012F064618D1E06950
:103F3000002820DA25F020051DE0D8F8180000EB55
:103F4000800006EB40003038C8F818002046E168D1
:103F50008847064601F047F80028EED1012F0AD025
:103F60002E2E08D12046E16888477F1C0646022F86
:103F700045F02005C4DBA069002803DA404245F083
:103F80000105A061E80701D025F01005B6B1A6F142
:103F90004100192802D8203645F400654A463146CA
:103FA000204625604D46FCF7DBF858B1012806D0C5
:103FB000ED1D25F0070000F1080989E704E005F18F
:103FC000040985E730468AE7206ABDE8F08710B526
:103FD000203AC0F00B80B1E81850203AA0E8185001
:103FE000B1E81850A0E81850BFF4F5AF5FEA027CC2
:103FF00024BFB1E81850A0E8185044BF18C918C031
:10400000BDE810405FEA827C24BF51F8043B40F8D1
:10401000043B08BF7047D20728BF31F8023B48BFB6
:1040200011F8012B28BF20F8023B48BF00F8012BF4
:1040300070477047704770472DE9F0470D46994625
:104040009246044600F124080168880604D5E06918
:1040500021F01001216000E00120A84201DD471B92
:1040600000E00027A1697A1902EB0900081AA06193
:104070002078C00602D42046FFF7BEFE002608E0E6
:10408000D4E901211AF806009047206A401C761CEA
:1040900020624E45F4DB2078C0060AD52046FFF7A3
:1040A000ABFE06E0D4E9012130209047206A401C95
:1040B0002062381EA7F10107F4DC07E0D4E90121F2
:1040C00018F805009047206A401C2062281EA5F1C0
:1040D0000105F3DC2046FFF7A5FE2078000602D597
:1040E0000220BDE8F0870120FBE770472DE9FF4F74
:1040F0000C461E464FF0FF378BB0D2E90001DDF8C9
:1041000060800A908A46C1F30A5505B93D460021F0
:1041100008464FF00000BAF1000F00F4400005DA45
:1041200000EB80004FF4400101EA50004FEA905943
:10413000B9F1010F00DDB9460A9850EA4A000ED0E5
:1041400044F61050A5F2FF3545432F14B8F1000F87
:104150001ED07542291E1EDDC9F100021CE0B8F117
:10416000010F4FF0000001D0302103E0F24305E0E1
:104170002154401CB042FBDB304600220021215478
:104180000B99C1F80880C1E900200FB0BDE8F08F9D
:10419000BD1B6D1CDEE74A4600DA694206A800F046
:1041A0005BFA06AB93E8070003AB83E807005046D1
:1041B0000A9900F03CFB8DE80700A0F500501F387D
:1041C00000900398002D0ADD42F21F014A46084480
:1041D000002303A90390684600F0A5FD09E0A0F5BF
:1041E00000504A461F38002303A90390684600F098
:1041F000AFFD8DE807000004000C03D04FF0FF3046
:10420000410800E01046B8F1000F03D000220092F0
:1042100015461EE0751E05D400F098F9303262553F
:104220006D1EF9D5B3460122084302D000227F1C3F
:1042300004E02078302801D100227F1E002A09974F
:1042400084D01DE0112D07DA00F080F9303262557C
:104250006D1C50EA0102F5D1084302D00098C8B1A4
:104260000EE00021681E05E0235C625C635422546A
:10427000401E491C8142F7DBAB46A81B401E09903B
:10428000002004F80B000B98099AC0F80880C0E9D8
:10429000002B7AE711264FF0000857E72DE9F04F81
:1042A00088460446D21D22F0070191B0D1E90001F1
:1042B000CDE90A0100F083FE02460B98C00F01D041
:1042C0002D2007E02068810701D52B2002E0202166
:1042D00001EAC000032A099001D0072A05DB034642
:1042E0004146204600F078F90BE12078800601D5A0
:1042F000E06900E00620B8F1650F814606D0B8F10C
:10430000660F18D0B8F1670F70D131E00020B9F115
:10431000110F009001DB112301E009F101030AAA4A
:1043200001A90CA8FFF7E2FEDDE90C70002609F1F7
:104330000105834647E001204B4600904FF00047BF
:104340000AAA01A90CA8FFF7D1FEDDE90DB00C996E
:104350005D46002610B909F101000D18B9EB050002
:1043600003D4C0F1FF3609F10105A5EB09002BE0EC
:10437000B9F1010F01DA4FF001090020B9F1110F75
:104380000090484601DD112300E003460AAA01A976
:104390000CA8FFF7ABFEDDE90C704D460026834606
:1043A000207800070AD4AB4500DA5D4601A8012D4C
:1043B00004DD411911F8011C302907D04F4502DAFC
:1043C00017F1040F04DA012082460FE06D1EEEE7BC
:1043D000002F02DCED1B3E4403E0781CA84200DD08
:1043E0007D1CB81B00F1010A4FF000472078000740
:1043F00003D4AA4501DB4FF0FF3A0021B7F1004F8B
:104400000DF143088DF8431024D002202B23002FF8
:1044100001DA7F422D230A21021EA0F1010000DCF7
:104420005FB197FBF1FC97FBF1F201FB1C7C174697
:104430000CF1300C08F801CDEEE7A8F10100037093
:104440002188090501D5452100E06521A0F1010879
:1044500000F8011C09980FA9A1EB0807FF1D00B186
:104460000120411901EBEA70A1693844081A401E85
:10447000A0612078C00602D42046FFF7BDFC099851
:1044800028B1D4E901219047206A401C206220789D
:10449000C00622D52046FFF7AFFC1EE0002E04DB4D
:1044A000B34502DD01A8805D00E03020D4E90121A0
:1044B0009047206A401C2062761CAAF101005FEA46
:1044C000000A0AD100F03EF8C0680168405CD4E9F7
:1044D00001219047206A401C2062281EA5F1010599
:1044E000DCDC07E0D4E9012118F8010B9047206AD1
:1044F000401C2062381EA7F10107F3DC2046FFF7BD
:1045000091FC032011B041E601694A1C0261087860
:10451000704700B58FB0CDE9013100210591054903
:104520007944CDE9031011466846FFF7C9FC0FB086
:1045300000BD0000E5FFFFFF0A6802F8010B0A60FA
:1045400070470000004870476000002030B5B0F1AF
:104550000A024FEA900E71F100034EEA817EB0EB41
:104560000E0061EB91014FEA101E4EEA017E10EB46
:104570000E0041EB11114FEA102E4EEA016E10EBC6
:104580000E0041EB11214FEA104E4EEA014E10EBA6
:104590000E0041EB1141401841F100014FEAD000FB
:1045A00040EA41704FEAD10110EB80054FEA8104E7
:1045B00044EA907444EB01046D1944EB0404521B6B
:1045C000A3414FF0000348BF0A3200D530BD401C64
:1045D00041F1000130BD00002DE9F0411F460446C5
:1045E00003260168072A01F4006004DB08B116A560
:1045F00005E016A503E008B115A500E015A521F01A
:1046000010002060A069C01EA0610FB1401EA06113
:104610002046FFF7F1FB4FB1D4E90121384690471E
:10462000206A401C2062C01C206206E0206AFAE773
:10463000D4E9012115F8010B9047761EF8D22046E7
:10464000FFF7F0FBBDE8F0814E414E006E616E0059
:10465000494E4600696E66002DE9F04781461646D0
:104660008AB0354878440DC88DE80D00324878444A
:10467000801C03AC0DC884E80D0041F69B30084453
:10468000372190FBF1F290FBF1F5A5F1800501FBDC
:1046900012041B3C02D56442012000E00020DFF838
:1046A00098A080460027FA44AAF1BE0A0EE0E0076F
:1046B0000AD03246684607EB470101230AEB810125
:1046C00000F046FB8DE8070064107F1C002CEED143
:1046D000194F7F44AE3F19E0E80715D007EB0410EF
:1046E0000DF1180A90E80E008AE80E00C068F0424A
:1046F00001D1981908903246012306A903A800F0B9
:1047000027FB03AB83E807006D10641C002DE3D189
:104710004FF0010332466946B8F1000F03A802D0FA
:1047200000F001FB01E000F013FBC9E90001C9F84A
:1047300008200AB0BDE8F0875C1700000048704709
:10474000400000207546FFF7F9FFAE4605006946B8
:10475000534620F00700854618B020B5FEF784FBCD
:10476000BDE820404FF000064FF000074FF0000872
:104770004FF0000B21F00701AC46ACE8C009ACE8F3
:10478000C009ACE8C009ACE8C0098D46704710B557
:104790000446AFF300802046BDE81040FBF7FDBCA7
:1047A0004FF0013C50F8042B51F8043B9A4221D1C0
:1047B000A2EB0C03934313EACC1317D150F8042B4C
:1047C00051F8043B9A4215D1A2EB0C03934313EA30
:1047D000CC130BD150F8042B51F8043B9A4209D169
:1047E000A2EB0C03934313EACC13DBD04FF0000091
:1047F000704700BFD01A01BAB1FA81F101F0180177
:1048000022FA01F0CB40C1F12001DBB2C0B2C01AE4
:104810002CFA01F3D11A914311EAC311E6D1704782
:1048200001491820ABBEFEE72600020070475FEA90
:10483000400C08BF91F0000F4FEA8C234FEAC122D1
:1048400043EA51514FEA1C5018BF00F5F0404FEABF
:10485000300018BF41F000415FEA6C5C00F0298035
:10486000BCF1FF3F08BF40F080407047130C06BF0B
:1048700012044FF0100C4FF0000C130E04BF120284
:104880000CF1080C130F04BF12010CF1040C930F70
:1048900004BF92000CF1020CD30F04BF52000CF1C4
:1048A000010C11464FF00002A0F11F00A0EB0C001C
:1048B000704711F0004F08BF704731F000413FF4DE
:1048C000D5AF0B0C06BF09044FF0100C4FF0000CD5
:1048D0000B0E04BF09020CF1080C0B0F04BF0901F9
:1048E0000CF1040C8B0F04BF89000CF1020CCB0FF0
:1048F00004BF49000CF1010CCCF12003A0EB0C002B
:1049000022FA03F302FA0CF241EA030100F101007A
:10491000704720F07F4C80EA030023F07F47ACEB28
:10492000070303F57C5300F0004003F1FF032DE97A
:1049300080494FEA154B09B44FEA144325EA0B4E60
:1049400024EA03480FF2042606EB132749083E78B1
:104950005FEA320203FB0667C7F5000707FB06F6AE
:104960004FEA54374FEAD64606F1020607FB066CBB
:10497000CCF1005C4FEA1C472CEA074C07FB06F41D
:104980000CFB06F504EB15464FEA961634BF0020E3
:104990004FF000404FEAD13706FB07FC4FEA1C4CB2
:1049A0000CFB0BF7D21B03FB0CF761EB07010CFBB5
:1049B0000EF7B0EB074072EB17420CFB08F734BF61
:1049C000A2EB0742B2EB074261EB17414FEA0C44FE
:1049D0004FEA910706FB07FC4FEA1C4C0CFB0BF758
:1049E000B0EBC74072EB573203FB0CF734BFA2EBBE
:1049F000C742B2EBC74261EB57310CFB0EF7B0EB8D
:104A0000C70072EB57720CFB08F734BFA2EBC7026A
:104A1000B2EBC70261EB5771039F4FEA816141EA34
:104A2000921104EBCC044FEAD1374FEA826206FBC5
:104A300007FC42EA90124FEA80604FEA1C4C0CFBE4
:104A40000BF7D21B03FB0CF761EB07010CFB0EF716
:104A5000B0EB074072EB17420CFB08F734BFA2EB38
:104A60000742B2EB074261EB17414FEA8C554FEA20
:104A7000910704EB9C2406FB07FC4FEA1C4C0CFB43
:104A80000BF7B0EBC74072EB573203FB0CF734BFA8
:104A9000A2EBC742B2EBC74261EB57310CFB0EF7FA
:104AA000B0EBC70072EB57720CFB08F734BFA2EBF8
:104AB000C702B2EBC70261EB577115EB4C254FEA09
:104AC000816141EA92114FEA82624FEAD13742EAAC
:104AD000901206FB07FC44F100044FEA80604FEAA5
:104AE0001C4C0CFB0BF7D21B03FB0CF761EB070113
:104AF0000CFB0EF7B0EB074072EB17420CFB08F70C
:104B000034BFA2EB0742B2EB074261EB174115EB52
:104B10001C154FEA813141EA92414FEA823242EA62
:104B200090424FEA80304FEA0C7644F1000448EAA4
:104B300003434EEA0B484FF0000EB2EB080C71EB4A
:104B4000030724BF624639464EEB0E0E4FF0000BB2
:104B50000018524149414BEB0B0BB2EB080C71EBC7
:104B600003077BF1000B24BF624639464EEB0E0E65
:104B70004FF0000B0018524149414BEB0B0BB2EBCD
:104B8000080C71EB03077BF1000B24BF624639462A
:104B90004EEB0E0E51EA020718BF46F0010616EB67
:104BA0000E7655F1000254F1000103D5BDE88901EC
:104BB000BDE80088BDE88901BDE80048B61952414A
:104BC00041EB0101A3F10103704780807F7E7D7C72
:104BD0007B7A7978777676757473727171706F6E8F
:104BE0006E6D6C6C6B6A6A6968686766666564643A
:104BF000636362616160605F5F5E5E5D5D5C5C5BC4
:104C00005B5A5A5959585857575656555555545432
:104C1000535352525251515050504F4F4F4E4E4D90
:104C20004D4D4C4C4C4B4B4B4A4A4A4949494848DC
:104C3000484747474746464645454544444444431C
:104C400043434342424242414141002B9C4630D4BF
:104C500077002BD01CB54FEA370703B44FF0100094
:104C60004FF01001BAF1000F06D0BCF1000FDCBF0D
:104C700040F0080040F008014FF000000FBCBDE814
:104C800010400BF1010BBBF1010F08BF5FEA1707E2
:104C900022BF12F1010211F101014FF0004143F175
:104CA000000300F0004043EA00007047F9D35708C2
:104CB000D0E746EA064613F1400F4FEA16461FDDDD
:104CC00013F1200FDFBF16430A46002120335B4259
:104CD000BED0C3F1200746EA064602FA07F74FEABC
:104CE000164646EA0706C3F1200722FA03F201FA44
:104CF00007F721FA03F14FF0000342EA0702A7E7A2
:104D000046EA020646EA06464FEA164646EA010623
:104D1000BCBF46EA0646360C4FF000034FF00002D7
:104D20004FF0000194E72DE9804C9A46934670B409
:104D300091E8380007C831EA400C48BF34EA430C18
:104D400003D5FFF7E6FDFFF780FFF0BCBDE8008C60
:104D50002DE9804C9A46934670B491E8380007C814
:104D600010F0804F08BF13F0804F03D100F005F81A
:104D7000FFF76BFFF0BCBDE8008C20F07F4780EAB6
:104D8000030023F07F4C07EB0C03A3F57C5300F0EA
:104D90000040A3F1FE0392F0000F00F0B38095F005
:104DA000000F00F077802DE901494FEA11404FEAEA
:104DB000144621EA004800FB06FC24EA064708FBEB
:104DC00006F607FB08F800FB07F718EB06484CEB64
:104DD000164C4FEA124B18EB07484FEA15464CEBBE
:104DE000174022EA0B4E0BFB06FC25EA06470EFB9A
:104DF00006F607FB0EFE0BFB07F71EEB064E4CEB11
:104E0000164C4FF000061EEB074E4CEB174B18EB01
:104E10000B0840F1000018EB0E0B58EB000840F1B6
:104E200000008F1A4FF000013CBFC943661B14BF3E
:104E3000B5EB040C00213CBFC943F61B4FEA1744F5
:104E40004EEA8E0E27EA04454FEA1C4704FB076230
:104E50002CEA074C05FB07F70CFB05F604FB0CFCE2
:104E600016EB074642EB174216EB0C4642EB1C4290
:104E70001BEB060658EB0202414146EA9E0601D5AD
:104E8000BDE80189B619524141EB0101A3F10103CB
:104E9000BDE801894FEA14454FEA114724EA054667
:104EA00021EA074C05FB07F406FB07F70CFB06F1AC
:104EB00005FB0CFC11EB074144EB17444FEA12478A
:104EC00011EB0C4144EB1C4422EA074C05FB07F2B2
:104ED00006FB07F70CFB06F605FB0CFC16EB07467A
:104EE00042EB174216EB0C4642EB1C456A1854F194
:104EF000000148BF7047B619524141EB0101A3F1CF
:104F00000103704795F0000F37D04FEA11424FEA86
:104F1000144721EA024624EA074C02FB07F106FB8C
:104F200007F70CFB06F402FB0CFC14EB074441EB07
:104F300017414FEA154714EB0C4441EB1C4125EA9D
:104F4000074C02FB07F506FB07F70CFB06F602FB16
:104F50000CFC16EB074645EB174516EB0C4645EBEC
:104F60001C42121951F1000148BF7047B619524155
:104F700041EB0101A3F1010370474FEA14454FEAE9
:104F8000114724EA054621EA074C05FB07F106FB19
:104F900007F70CFB06F24FF0000605FB0CFC12EBCA
:104FA000074241EB174112EB0C4251EB1C4148BF49
:104FB0007047921841EB0101A3F1010370474900CA
:104FC00050EAC12018BF04204A0D18BF40F001006C
:104FD00040F2FF72B2EB515F08BF40F002000128BF
:104FE00008BF0520704730380A2801D201207047D9
:104FF0000020704710B500290AD00878002807D093
:1050000005487844FFF7CCFB002801D0002010BDF4
:105010000248784410BD0000FA0D0000F20D0000B7
:105020000808A0F500114FEA3101704743004FEA2C
:10503000D30C4FEA3C0C43401FBF40070CF16051BA
:1050400013F0FE4F70471CF0006F03D100200CF0EE
:10505000004170470CF0004343EA507010B540EA3D
:10506000CC0000F0E4F800BF000000924FEA00011D
:10507000FFF7D6BF4FF000414FF00000A1F500212F
:10508000704700004FF47F0C1CEAD0121EBF1CEAD0
:10509000D11392EA0C0F93EA0C0F00F0858090EA8E
:1050A000010F48BF42F4807240F4000C41F400004C
:1050B0002CF07F4120F07F4000B58142A2EB03023B
:1050C0000FF2081CACEB504EC0F100009EF800E05F
:1050D0004FEA4E0E00FB0EFC38BF49004FEA2C1C75
:1050E00002F5FA020CFB0EF34FEACE1E4FEA112C2A
:1050F0004FEAC1210EEB635E42EB22420EFB0CFC39
:105100004FEA1C5300FB03114FEA112C4FEA013107
:105110000EFB0CFC4FEADC4C00FB0C11C14228BF1B
:1051200009184CEB03335DF804EB10EB410143EB42
:10513000C250B2F57C0F38BF704729D512F0F00F7E
:105140001CBF00F1C04000F0004070470081828326
:105150008485868788898B8C8D8E8F919293959686
:1051600097999A9C9D9FA0A2A3A5A7A8AAACAEB010
:10517000B2B3B5B7B9BCBEC0C2C5C7C9CCCED1D415
:10518000D7D9DCDFE2E6E9ECF0F3F7FAFE00000045
:105190004FEA400C0CF1807CBCF17E4F28BF704779
:1051A000B0F1C04000F089B890EA010F0CEAD113C9
:1051B00048BF42F48072624538BF634507D213F49A
:1051C0007F0F16D080EA010000F00040704710B554
:1051D00000F02DF8097EFC3E00F005B880EA0100E1
:1051E00000F00040704780EA010000F0004000F04D
:1051F00064B812F47F0F04BF0248704780EA0100D0
:1052000000F05BB80000C07FB0FA80F310FA03F240
:10521000C3F19D030AD0D90501EB1220530638BF14
:10522000704700F1010008BF20F0010070470EF147
:10523000020E2EF0030E5EF8044B244204D44FEA13
:105240004102B2F17F4F11D84FEA4003B3F17F4FD3
:105250000CD80ED14FEAD07CB2F17F4F0CEB4C0C46
:105260000CF1020C08BF4CEBD17C04E04FF0080CB1
:1052700001E04FEAD17C0CEB4C0324FA03F404F078
:105280000704B4F1040C06D20EEB840CBDE8104008
:105290004CF0010C6047DFE80CF0070802024FF009
:1052A0000040A0F5800010BD0846420018BFD2F1B2
:1052B000807288BF00F0004010BDFF2141EAD0504D
:1052C000C0057047FEF7EABF0000000000000000C4
:1052D0000000000000000000000038FCFC38000066
:1052E0000000000D0D000000000E1E00001E0E004C
:1052F000000000000000000020F8F820F8F820006E
:10530000020F0F020F0F0200387C444747CC980071
:105310000306041C1C07030030300080C06030000E
:105320000C060301000C0C0080D87CE4BCD84000C3
:10533000070F0808070F080000101E0E00000000ED
:1053400000000000000000000000F0F80C04000065
:10535000000003070C0800000000040CF8F0000037
:105360000000080C0703000080A0E0C0C0E0A0809F
:105370000002030101030200008080E0E080800061
:105380000000000303000000000000000000000017
:105390000000101E0E000000808080808080800051
:1053A00000000000000000000000000000000000FD
:1053B0000000000C0C00000000000080C060300005
:1053C0000C06030100000000F8FC04C424FCF800F3
:1053D000070F0908080F0700001018FCFC00000068
:1053E0000008080F0F080800080C84C4643C18006B
:1053F0000E0F0908080C0C00080C444444FCB800CB
:10540000040C0808080F0700C0E0B098FCFC8000FE
:10541000000000080F0F08007C7C4444C4C48400D2
:10542000040C0808080F0700F0F84C4444C0800042
:10543000070F0808080F07000C0C0484C47C3C000C
:1054400000000F0F00000000B8FC444444FCB8000A
:10545000070F0808080F0700387C444444FCF80094
:10546000000808080C0703000000003030000000AE
:1054700000000006060000000000003030000000C0
:105480000000080E060000000080C0603018080010
:1054900000000103060C080040404040404040002E
:1054A00002020202020202000008183060C08000FE
:1054B00000080C0603010000181C04C4E43C18009A
:1054C0000000000D0D000000F0F808C8C8F8F0005A
:1054D000070F080B0B0B0100E0F0988C98F0E00030
:1054E0000F0F0000000F0F0004FCFC4444FCB80048
:1054F000080F0F08080F0700F0F80C04040C180040
:1055000003070C08080C060004FCFC040CF8F0006F
:10551000080F0F080C07030004FCFC44E40C1C00FB
:10552000080F0F08080C0E0004FCFC44E40C1C00DF
:10553000080F0F0800000000F0F80C84848C98001D
:1055400003070C0808070F00FCFC404040FCFC006F
:105550000F0F0000000F0F00000004FCFC0400000F
:105560000000080F0F08000000000004FCFC04000D
:10557000070F08080F07000004FCFCC0F03C0C00FB
:10558000080F0F00010F0E0004FCFC0400000000D7
:10559000080F0F08080C0E00FCFC387038FCFC00EB
:1055A0000F0F0000000F0F00FCFC3870E0FCFC0047
:1055B0000F0F0000000F0F00F0F80C040CF8F000C3
:1055C00003070C080C07030004FCFC44447C38006F
:1055D000080F0F0800000000F8FC040404FCF800A9
:1055E000070F080E3C3F270004FCFC44C4FC3800B5
:1055F000080F0F00000F0F00183C6444C49C1800F3
:10560000060E0808080F0700001C0CFCFC0C1C0010
:105610000000080F0F080000FCFC000000FCFC006C
:10562000070F0808080F0700FCFC000000FCFC0046
:105630000103060C06030100FCFC008000FCFC00DA
:10564000030F0E030E0F03000C3CF0C0F03C0C00E7
:105650000C0F0300030F0C00003C7CC0C07C3C001E
:105660000000080F0F0800001C0C84C4643C1C00E0
:105670000E0F0908080C0E000000FCFC04040000DA
:1056800000000F0F080800003870E0C08000000024
:105690000000000103070E0000000404FCFC0000F1
:1056A000000008080F0F0000080C0603060C080095
:1056B00000000000000000000000000000000000EA
:1056C00020202020202020200000030704000000CC
:1056D000000000000000000000A0A0A0E0C000004A
:1056E000070F0808070F080004FCFC2060C08000BA
:1056F000080F0708080F0700C0E0202020604000C6
:10570000070F0808080C040080C06024FCFC00009F
:10571000070F0808070F0800C0E0A0A0A0E0C00025
:10572000070F0808080C040040F8FC440C1800009F
:10573000080F0F0800000000C0E02020C0E020009B
:10574000276F48487F3F000004FCFC4020E0C00079
:10575000080F0F00000F0F00000020ECEC0000000D
:105760000000080F0F0800000000000020ECEC0013
:1057700000307040407F3F0004FCFC80C06020008F
:10578000080F0F01030E0C00000004FCFC000000D9
:105790000000080F0F080000E0E060C060E0C000FB
:1057A0000F0F000F000F0F0020E0C02020E0C0000E
:1057B000000F0F00000F0F00C0E0202020E0C0000D
:1057C000070F0808080F070020E0C02020E0C000F5
:1057D000407F7F48080F0700C0E02020C0E0200085
:1057E000070F08487F7F400020E0C0602060C000B5
:1057F000080F0F080000000040E0A02020604000DB
:10580000040C09090B0E04002020F8FC20200000E5
:105810000000070F080C0400E0E00000E0E00000DA
:10582000070F0808070F080000E0E00000E0E000B4
:105830000003070C0C070300E0E0000000E0E000BC
:10584000070F0C070C0F07002060C080C06020000D
:10585000080C0703070C0800E0E0000000E0E0008F
:10586000474F4848683F1F00606020A0E06020006C
:105870000C0E0B09080C0C00004040F8BC0404009E
:10588000000000070F080800000000BCBC0000007A
:105890000000000F0F000000000404BCF8404000AE
:1058A0000008080F07000000080C040C080C040096
:1058B000000000000000000080C0603060C0800078
:1058C00007070404040707001022640C8008494AF3
:1058D0004CF84C4A490800000404FE010404040486
:1058E00004FF0404040604001010D0FF5090204070
:1058F000FF00FF4020300000040300FF8044221915
:1059000007003F414640700000F848484848FF48BB
:10591000484848FC080000000007020202023F421B
:10592000424242474070000080808282828282E24E
:10593000A2928A8680C08000000000000040807F24
:105940000000000000000000000000000000000057
:105950000000000000000000000000000000000047
:105960000000000000000000000000000000000037
:105970000000000000000000000000000000000027
:105980000000000000000000000000000000000017
:105990000000000000000000000000000000000007
:1059A00000000000000000000000000000000000F7
:1059B00000000000000000000000000000000000E7
:1059C00000000000000000000000000000000000D7
:1059D00000000000000000000000000000000000C7
:1059E00000F8FC1C3830381CFCF800F8F800F8F817
:1059F000000000F8FC8C8C8C0080D050F0E000F0AF
:105A0000F020300000808000808000808000000C4A
:105A10001224120C000000000000000080000000B2
:105A200000000000182444884424180000000000EE
:105A30000000000000000000000000000000000066
:105A40000000000000000000000000000000000056
:105A50000000000000000000000000000000000046
:105A60000003838000808000030300080B0B0F07F6
:105A7000804080408303030300000303030300030B
:105A80008380808080C3C3C0C3C3C0C3C3C0C0C041
:105A9000C0C0808080C0C040201804030000000007
:105AA000002050A050200000000000000000000076
:105AB00000000000000000000000000000000000E6
:105AC00000000000000000000000000000000000D6
:105AD00000000000000000000000000000000000C6
